:10000000D88D052055A3020081A1020051A3020052
:1000100051A3020051A3020051A3020051A3020008
:10002000000000000000000000000000691E010048
:1000300051A3020000000000811E0100E91E010022
:10004000212D0100352C0100A52E0100E52E010017
:10005000D5870200D5870200D587020035840200CB
:10006000212D0100352C0100A52E0100E52E0100F7
:10007000E591020075910200B17E0200ED7F020061
:10008000D98002009D81020035840200559F020044
:1000900035840200000000000000000000000000A5
:1000A0000000000000000000000000000000000050
:1000B0000000000000000000000000000000000040
:1000C0000000000000000000000000000000000030
:1000D0000000000000000000000000000000000020
:1000E0000000000000000000000000000000000010
:1000F0000000000000000000000000000000000000
:1001000000000000000000000000000000000000EF
:1001100000000000000000000000000000000000DF
:1001200000000000000000000000000000000000CF
:1001300000000000000000000000000000000000BF
:1001400000000000000000000000000000000000AF
:10015000000000000000000000000000000000009F
:10016000000000000000000000000000000000008F
:10017000000000000000000000000000000000007F
:10018000000000000000000000000000000000006F
:10019000000000000000000000000000000000005F
:1001A000000000000000000000000000000000004F
:1001B000000000000000000000000000000000003F
:1001C000FFFFFFFFFFFFFFFFFFFFFFFFFFFFFFFF3F
:1001D000FFFFFFFFFFFFFFFFFFFFFFFFFFFFFFFF2F
:1001E000FFFFFFFFFFFFFFFFFFFFFFFFFFFFFFFF1F
:1001F000FFFFFFFFFFFFFFFFFFFFFFFFFFFFFFFF0F
:1002000010B5054C237833B9044B13B1044800E012
:1002100000BF0123237010BD8805002000000000EE
:10022000F090050008B5034B1BB10349034800E0FB
:1002300000BF08BD000000008C050020F090050004
:1002400000232DE9F0410D4694B080463C2219462A
:1002500005A88DF80F30049349F051FC45B3B8F16F
:10026000000F2BD0184C0DF10F0704F16C0622681B
:100270004AB129896868A38800972FF06DFB10B9EF
:100280009DF80F302BB90C34B442F0D114B0BDE856
:10029000F081A288216804A849F0C6FE69682A890D
:1002A00004A849F0C1FE29464046A3689847EAE7FA
:1002B0004821064B064A074829F026FF4921064BEC
:1002C000034A044829F020FFA4050020C8C4040004
:1002D000B4C60400E0C4040018C504002DE9F047CA
:1002E00082B0002855D00E4600295ED09146002AE3
:1002F00055D08246012409272F4D07E02988B142B5
:1003000022D001340A2C05F10C050DD0092F04F17F
:10031000FF33F3D155F8042C002AEFD101340A2C15
:100320001F4605F10C05F1D1092F24D00120234BE4
:1003300007EB470743F827A003EB8707BE80C7F802
:10034000089002B0BDE8F0873246504655F8041CCC
:1003500049F056FE80460028D3D1194A194904F0C5
:1003600037FA534632464046174904F031FA032023
:1003700002B0BDE8F087124A1249002004F028FAC2
:100380005346324600201149009704F021FA02201A
:10039000EEE768210E4B0F4A0F4829F0B5FE6A219F
:1003A0000E4B0C4A0C4829F0AFFE69210C4B094A50
:1003B000094829F0A9FE00BFA8050020A4050020D7
:1003C00040C6040070C504008CC50400E4C50400E8
:1003D0002CC504008CC60400E0C404005CC5040005
:1003E00044C504002DE9F04108B30E4629B3164F69
:1003F000804600253C4604E00135092D04F10C043B
:1004000013D021680029F7D0A388B342F4D1324633
:10041000404649F0F5FD0028EED105EB450507EB18
:10042000850347F8250098809860BDE8F081B121E8
:10043000064B074A074829F067FEB221064B044ADB
:10044000044829F061FE00BFA40500202CC504006B
:1004500068C60400E0C4040044C504002DE9F04768
:100460002DED028B6D4BB0EE408A93F800C005462F
:100470000CF1010C5FFA8CF60C2E00F29280DFF882
:10048000A8A1DFF8A8819AF900401E7008EB840348
:1004900083ED000A10EE100A48F0CEFD41EC100B7F
:1004A0000C2049F02BFC51EC100B49F0B7F804F18B
:1004B00001094FFA89F35A4F00B20C2B5FFA89F900
:1004C00027F8140000F09B808AF800302346002EA5
:1004D00000F09D804FF0000CDFED527A624603E0A1
:1004E00091ED008A37F91400E1B24C1E64B2002C81
:1004F0000CF1010CB8BF0B315FFA8CFEB8BF4CB2E7
:10050000B64577EE887A024408EB8401E8D307EE1B
:10051000106AB8EEC77A002B92FBF6FE87EE878A48
:1005200002DA09F10B035BB200208446D9B237F935
:1005300013204B1E5BB2002B00F10100B8BF01F18C
:100540000B03C4B2A2EB0E02B8BF5BB2B44202FB13
:1005500002CCEBD3BCFBF6FC0F224FF4004400208E
:1005600004EB40039340634502F1FF329CBF001946
:10057000ACEB030C531C4FEA5404F1D148F03AFDA4
:1005800041EC100B6FF00B0049F0B8FB51EC100B75
:1005900049F06CF8B0EE480ABDEC028B2860BDE86B
:1005A000F0870C26DFF880A0DFF880809AF9004001
:1005B0001E7008EB840282ED000A10EE100A48F06B
:1005C0003BFD41EC100B304649F098FB51EC100B11
:1005D00049F024F804F101094FFA89F3104F00B2F1
:1005E000B3425FFA89F927F814007FF46DAF4FF03A
:1005F00000091E468AF800904FF0FF336AE74FF07B
:1006000000098AF8009016B14FF0FF3362E7DFED82
:10061000057A4FF0000C87EEA78A9DE77806002048
:1006200044060020000000004006002010060020C4
:1006300010B5438800F5805292F86F419BB200F2EA
:10064000AA4200F22A7E00EB430103F1010C1CB127
:10065000B1F92C3CA2F88232B1F9AC191FFA8CF333
:10066000B3F5A07F22F8021F08BF00239645EAD108
:10067000838110BD00B50F224FF4004C4FF0000EE7
:100680000CEB4E039340984202F1FF3224BFE64444
:10069000C01A531C4FEA5C0CF2D170465DF804FBA3
:1006A0004FF4B172D0F8981F836907EE901A02FBDD
:1006B00003F3DB08B8EEE77A07EE903AF8EEE77A54
:1006C000C7EE876AC0ED086A00F5805191F86F3176
:1006D000ABB1C36902FB03F3D0F89C2FDB0807EE34
:1006E000902AB8EEE77A07EE903AF8EEE77A87EECE
:1006F000876AC6EE267A80ED096AC0ED057A1C4B42
:10070000DB8DB3F5727F4FEAD30203D3002380F869
:10071000E83F70476D2A25D8012380F8E83FDFEDD8
:10072000157AF4EEE76AF1EE10FA1ADDB0F9E43F5B
:10073000452B16DD8C2BA8BF8C230F4A463B1BB2E2
:10074000A2FB03235B0807EE903A9FED0C6AF8EEDC
:10075000E77A90ED057AC7EE866A77EE667AC0EDA5
:10076000057A704790F8E83F012BD8D0704700BF5A
:10077000A81B0020CDCCCC3D398EE3380000C84208
:100780002DE9F04F47F230580C46016ADFF8C0E11E
:10079000521A4245A8BF42467245B8BF724604F598
:1007A000805696F86F71944683B03FB1456A5D1BE1
:1007B0004545A8BF45467545B8BF754694F8201F06
:1007C000002947D14FF0010E5F4B0A4619600846D9
:1007D0007346DFF88091DFF8808189F800100131DD
:1007E000C9B2082984F8201F46D06244C8F8002006
:1007F000DFF8688128F810C0002F61D1082989F836
:1008000000E040F28C80D21011B2002094F8B22E99
:100810000193DFF84C8101F0A7FB96F86F21B8F93E
:10082000EE70019B002A5AD163889BB204EB43030C
:10083000A3F8AC79638801339BB2638063889BB271
:10084000B3F5A07F2EBF002363889BB2638003B003
:10085000BDE8F08F072968D9DFF8F890DFF8F88055
:1008600099F80000082900F1010E4FF00003D8F8B4
:1008700000200EF0070EB8D1DFF8E0A03AF910B072
:10088000A2EB0B02C8F80020002F41D02F492E4FB9
:1008900089F800E031F910E021F81050396862441D
:1008A000A1EB0E010D440821C8F80020002AB8BFB2
:1008B00007322AF810C03D60D21095FBF1F5A3E78E
:1008C000214FDFF888C008292CF81050386889F8C3
:1008D00000E005443D6025D9D210ED1094E794F86E
:1008E000B22E29B2012001F03FFB638896F86F1108
:1008F0009BB204EB4303B8F9DE21A3F8AC790029DD
:1009000098D063889BB204EB4303A3F82C2C91E7A7
:1009100062442AF810C089F800E0C8F8002092FB71
:10092000F1F271E792FBF1F2C7E7DFF82890DFF808
:10093000288099F80000002300F1010ED8F800206B
:100940000EF0070E4BE700BF900600208006002047
:100950000080FFFF5C060020740600206406002073
:10096000081800202DE9F04190F85B64DDE9068469
:10097000D6B908F109052D1B122D63D9C8F80060FE
:10098000C8F80460A8F8086026606660268123F82D
:10099000112003EB4105012301FA03F703FA01F1EA
:1009A0000E4380F85B6406E046FA01F5ED07EED5EC
:1009B00003EB41054F000F214FF4004C4FF0000EA8
:1009C000E35FB5F9006003FB03F3961B06FB06F03B
:1009D0005E083C4406EB50060CEB4E038B40B342E2
:1009E00001F1FF319CBFE644F61A4B1C4FEA5C0C48
:1009F000F2D128F807E02388AEEB030E0FFA8EFE43
:100A0000BEF1000F15DBCEF34F0E9E44A4F800E0BC
:100A100042B12B88D21A12B2002A05DBC2F34F0270
:100A20001A442A80BDE8F08152425210524292B2DA
:100A3000F6E7CEF1000E4FEA6E0ECEF1000E1FFA71
:100A40008EFEE2E7A8F10205A71E08F1080C25F8C2
:100A5000026FAC4527F8026FF9D198E72DE9F0470E
:100A600000F5D07800250446464682B000F5C67AE7
:100A700000F5CB7900F244477A795346D2002046FC
:100A8000CDE90098E9B2FFF76DFF17F8012B2AB105
:100A9000B6F90030DB0093FBF2F212B20135052DFE
:100AA000A6F8AE2206F10206E6D10327554D84F8DA
:100AB0005874B5F89A000321782888BF04270023CA
:100AC00084F8B47104F24E4C01370BE0B2F94EE4F5
:100AD0000A46B64503DD1A46D9B284F858140133E4
:100AE000BB4209D03CF9026B04EB4102002EEDDC65
:100AF0000133BB420A46F5D102EB420294F8593465
:100B00009200511D99424EDB0133DBB284F8593417
:100B10003D4AA2FB0323C3F3C70384F85A3423449A
:100B200093F84914002956D1A0F11403B3F58C7F32
:100B300033D8B4F9985494F8B5118D423BDA334A5E
:100B40006B1C1BB21380B4F99A241D46A4F8983488
:100B5000531C1BB2994208BF002304EB4202002D34
:100B6000A2F85C04A4F89A3417DD002304F25A4278
:100B700002EB450032F8021F0B4490421BB2F9D140
:100B800093FBF5F31AB243B14FF41653B3FBF2F3F0
:100B9000C4F8883102B0BDE8F0870023C4F888317A
:100BA00002B0BDE8F08706329342B1DD013BDBB213
:100BB00084F85934ACE71E2908D0144AB2F9003041
:100BC000182B15D0172BDCBF01331380B4F99A24EE
:100BD000531C1BB2BEE74FF43473B3FBF1F1042096
:100BE0000022C4F89C1401F0A7FFB5F89A009BE717
:100BF0001E216B1C1BB22A46A4F898341D4684F8AB
:100C0000B511A7E7A81B0020ABAAAAAA940600204A
:100C100001291FD900220346104610B41C1F04EB03
:100C2000810C5C6853F8041B8C4209DC03DA4FF03A
:100C3000FF3142B90A466345F3D15DF8044B704772
:100C40000121002AF6D0914200F10104F3D00A46B6
:100C5000E0B2F0E700207047036810B5002B86462D
:100C60003ADB14BF012400240129D8BF002017DD7E
:100C700001230020ACB15EF82320002A1EDB14BF44
:100C80004FF0010C4FF0000CA44505D000F1010C11
:100C9000002A5FFA8CF008DB0133C2B98B42E9DB32
:100CA00010BD5EF82320002AF6DA01338B424FF0A4
:100CB000FF34F5DA5EF82320002AE0DAB4F1FF3FD2
:100CC000E4D101338B424FF0FF34F3DBE8E78B4292
:100CD0004FF00104CFDB10BD4FF0FF34C4E700BF7D
:100CE0002DE9F04F90F88441C16D04F1180200F530
:100CF0001A7540F8221082462346294685B0621EA6
:100D000000F5637005E0002A1346B8BF02F14903FD
:100D1000013A18335AF8233041F8043F8142F2D1A6
:100D2000631CDBB2482B8AF884315AD90123002294
:100D30008AF844308AF884218AF8283F04270AF286
:100D4000AF1301930AF51B7302930AF547730AF573
:100D5000DC790AF564780AF5D57B0AF5DA7603932F
:100D600000233446B6461BF8011BCAF8B831029B73
:100D700017FB013C0A4649B100220EF1B80353F8B3
:100D8000040B63450244FAD192FBF1F24EF8042FB2
:100D9000AE450CF1040CEDD148460091FFF738FF49
:100DA0000099039B49088BF8990217FB01300AEB65
:100DB000810101F51A7353F8042F54F8041F83427C
:100DC000A2EB0102C4F8D821F5D12D214046FFF74E
:100DD00043FF019B8BF89E029B45C1D105B0BDE846
:100DE000F08F9AF84430002BA8D105B0BDE8F08F01
:100DF0002DE9F04F40F25E460027554C80F8217FE8
:100E0000E58D6C1EA4B2B44298BF4BF68037B1F9A1
:100E100000609ABFB7FBF5F701243C46012AB446AF
:100E20001AD9951E1FFA85FE0D1D05EB4E0501F121
:100E3000020E06E0C4450EF1020EB8BFC446754569
:100E40000AD0BEF90080002BF4D1C4450EF1020E89
:100E5000A8BFC4467545F4D13E4D4FEA4C0C85FB06
:100E60000CE54FEAEC7CCCEB650C002B58D0A6EBE4
:100E70000C0636B2002E57DB14BF01250025012ACF
:100E8000D8BF002626DD00260123B146B0467F08E4
:100E90001FFA8CFE0DE0BCF1000F1EDB29D106F11C
:100EA000010A5FFA8AFAACBB564601331BB2934281
:100EB00010DA31F813C0ACEB0E0C0FFA8CFC002DDD
:100EC000E9D1BCF1000F11DBEFD0012501331BB2DA
:100ED0009342EEDB3046BDE8F08FB5F1FF3FE4D042
:100EE00006F1010A5FFA8AFA54B956464FF0FF3507
:100EF000DBE7012DE9D006F1010A5FFA8AFA1CB39B
:100F0000B8F1000F03D0B9F1000F10D1C146564619
:100F10009846D6E7B8F1000FF5D156469846C4E793
:100F2000664436B2002EA7DA4FF0FF35A7E7A3EBF1
:100F3000090B0FFA8BFBBB45E8DA90F821AF0AF1F9
:100F4000010A80F821AFBCE756460125BEE700BF85
:100F5000A81B002067666666B5EEC00AF1EE10FABF
:100F600001DDFFF77BBA002103460022044810B4DC
:100F7000044C017021701A605DF8044B704700BF8B
:100F8000400600207806002030B4194CB4F87650A2
:100F9000B4F80AC0B5B1A2EB0C0343F30A030FFA8D
:100FA0008CF25B0193FBF2F3B4F888201BB2520180
:100FB000B2FBF5F2002BB8BF5B421BB2062BA0F8C8
:100FC000AE2E02DD30BC604670470A4A94F880308D
:100FD000D2789A4284BF013384F88030B0F9A034CB
:100FE000092BD4BF8C46AC4630BC6046704700BF6E
:100FF000A81B002010C70400B0F8763FB0F9E61F28
:10100000012B10B5B0F8E62F0446A0F8501005D912
:101010000022032001F090FDB4F850202046B4F8DF
:10102000241FFFF7B1FFA4F8AC0E18B1024BB3FBBD
:10103000F0F080B2608510BD00DC05008B1E052B32
:1010400000F28B802DE9F04F0124002747F6FF7A4C
:1010500004FA01F81FFA88F8C8F5A0760136B6B28E
:1010600000F58053168093F86F314D1E89B0AC4067
:101070000493A3B20794A8EB030402970593069484
:10108000C3F101090024BB000193234607EB870548
:1010900000EBC51505F2AC4535F902CB01346344CC
:1010A0001FFA84FCE045F7D8741E002C4FDD0026A3
:1010B000019CCDF80C8004EB070C059DDDF8188031
:1010C0004FEA8C1C0CEB0504664400EB440400EB77
:1010D000460EB4F9AC6443FA01F4341B224EB44218
:1010E000B8BF34465445A8BF544605EB08061CFA61
:1010F00086F600EB4606B6F9ACB4BEF9AC64AEF8C1
:10110000AC4414889B1B05EB0906B6B2013C0135C3
:10111000A6425B44ADB2D5DBDDF80C80019E0B41ED
:101120003E4405EB861500EB450504EB8617B5F844
:10113000AC4400EB4707E31A029CA7F8AC34013437
:10114000049BE7B2BB42029403D316889AE7079D3B
:10115000E4E7002009B0BDE8F08F4FF4A0734FF032
:10116000FF301380704700BF0080FFFFF0B50025FF
:10117000AC462B4600F5805292F86F714FF0000696
:10118000013500EB8C0200EB4C0E00EB0C040CEB79
:101190004C015FFA85FC00EBC1016745AEF8D23F18
:1011A000C2F82C3FAEF8343FC2F8383FAEF8403FAB
:1011B000C2F8443FAEF84C3FC2F8503FAEF8603F33
:1011C000C2F8583FA2F8683FA2F86A3FAEF8643F01
:1011D00084F8743F84F87B3F84F8796FC2F8883FC5
:1011E000C2F8983F84F8D83F84F8DA3FC1F8A03FAE
:1011F000C1F8A43FC1F8A83FC1F8AC3FC1F8B03F67
:10120000C1F8B43FBAD2EF212822C0F8903F80F84D
:10121000783F80F8D06FA0F8D63FA0F8763FC0F8AE
:10122000DC3FC0F8E03FC0F8E43F80F8941F80F84E
:101230007D2FF0BD2DE9F043082300254FF0000C71
:10124000144685B082F8B23EC2F814C05580A2F8A8
:10125000AC5EA2F8505082F85A50D565A2F8225FD1
:10126000A2F8245F06460F460120194600F060FEF2
:10127000284694F8B21E00F05BFE0B210C22A4F865
:101280001E5F84F8205F1325404BDFF810C184F8FF
:10129000B51193E8030004F5D57303F8012B009012
:1012A0008DF804109CE8030004F2AF1C6345029023
:1012B0008DF80C100DF101000DF109011D7108D020
:1012C00010F8012B11F8015B03F8012B63451D7128
:1012D000F6D100254FF00109042084F84450C4F8E9
:1012E000885184F8845184F85954A4F85A54C4F8A5
:1012F0009C5401F035FBA58528462563C4E91255A9
:10130000C4E90E55C4F89854656384F8E89F01F069
:1013100027FB484601F024FB022001F021FB4FF09F
:101320000008032001F01CFB04221949194B0D7021
:10133000194983F880900D7004F2A441C1F800802F
:1013400004F59561C1F8008083F83A2083F85E20A7
:10135000204684F8285FA4F8A054FFF707FF38461A
:1013600000F0AAFF04F58053C4F82480C4F820805C
:101370006565A4F8B05EA3F86C5183F86E5196F8D9
:10138000732083F86F2105B0BDE8F083D8C6040050
:1013900078060020A81B002040060020E0C60400BC
:1013A0002DE9F04FD0F8907F83B0012F40F23E81BD
:1013B000002400F5805393F86F314FF00109019339
:1013C0002346DFF8CC820094C21892F8791F0029D6
:1013D0005AD003F2CA3E00EB8E056D6890F87D6F1F
:1013E0007D1BB54240F2C18090F8D7CF664502D24E
:1013F0006545C0F004814FF0000182F8791F00EBD1
:101400004301B1F9D25F38F913C0654546DC92F863
:10141000791F0131C9B2B14282F8791F04D392F821
:10142000D81F002900F0C48092F87B1F91B103F20D
:10143000CE3A50F82A40A7EB040EB64533D990F8BF
:10144000D7BFB34502D9DE45C0F0CC804FF00001D4
:1014500082F87B1FAC4500F3838092F87B1F01313B
:10146000C9B2B14282F87B1F02D392F8DA1F71B37E
:10147000009A28F813500132D3B20092019A934295
:10148000A2D903B0BDE8F08F00EB4301B1F9D25F00
:1014900038F913C090F87D6F6545B8DD03F2CA3E98
:1014A00003F5F36A73E0AC45D9DD03F5F46C30F96C
:1014B0001CE0AE45D3DD4FF00001012E82F8DA1FAB
:1014C00040F82A7020F81C5082F87B9FD0D882F810
:1014D000DA9F00EB8301D1F850CFD1F838EF6B4C95
:1014E000C1F858CF14F803A0C1F850EF00EB430146
:1014F000B1F9406FBAF1010FA1F8606F4FEA430BE9
:10150000B6D1002B40F09E80B0F8762F012A40F231
:10151000AB80AEEB0C0C1FFA8CFCACF12002742AF1
:1015200000F2AA8090F8742F00EB4202A2F87ECF5E
:1015300090F8742FB1F84C1FD0F8DCCF02F2B47ED3
:10154000891B013220F81E1080F8742FBCF1000FA7
:1015500003D0A6EB0C060CEBE606C0F8DC6F7EE0D1
:1015600003F2CE3A03F5F46CA5E700EB4305B5F9B9
:10157000D25F38F913C0AC45BFF64BAF03F5F36A41
:1015800000EB4A0BBBF904B0AB45BFF642AF4FF0DE
:10159000000100EB8E0E00EB4A0A012E82F8D81FE4
:1015A000CEF80470AAF8045082F8799F3FF63CAF59
:1015B000364982F8D89F00EB830E01F80390DEF8DD
:1015C0002C1FCEF8441F00EB4301B1F934EFA1F812
:1015D0004CEF002B7FF428AFD0F8E01FF9B9C0F82A
:1015E000E0EF21E70131C9B2AC4582F87B1F7FF7FC
:1015F00036AF00297FF459AF03F5F46C5BE7013196
:10160000C9B282F8791F00EB4305B5F9D25F38F90A
:1016100013C065457FF7FDAE0029AFD140E7AEEBC3
:10162000010E01EBEE01C0F8E01FFDE67FF429AFEB
:10163000174BB0F8D21FB0F8D42F19805A8003B0DE
:10164000BDE8F08FB1F84C1F8E1B92F8741F8B44CD
:101650000BF2B47B013120F81B6082F8741F4FF04D
:1016600000010A4AD15403E7013292B2022AA0F8DB
:10167000762F7FF45DAF4CE74FF0000490F8742FA5
:1016800002F2BC7200EB4202D48051E760060020F7
:101690007C060020084600222DE9F04FB44B91F85B
:1016A0007D1F5B8985B0CDE90222A0F8742F80F8F8
:1016B000D71F73B1DB08A2F1333203EB4303A2FB64
:1016C0000323C3F387030B2B00F230810C2380F834
:1016D0007D3F438842889BB203F58C781FFA88F8D7
:1016E000B8F5A07F24BF283B1FFA83F890F9943FF8
:1016F000D21A92B202F21717BFB2B7F5A07F24BF79
:10170000293A97B207F12104A4B2B4F5A07F03D31C
:101710006FF48F717C18A4B200F58052002647F652
:10172000FF7501921EE0002B11DB08EB060100EBB8
:101730004101B1F9ACC9D0F8882FD0F88C3F624490
:10174000C0F8882FB1F92C2C1344C0F88C3FFFF758
:1017500027FE013690F87D3F282E80F8D73F71D0C4
:1017600090F9943F3F2B03DC01335BB280F8943F48
:10177000402BD8D14FF0000E7146D0F8903F009624
:101780000133C0F8903F019B93F86FA101EB810CEE
:1017900004EB8C1300EB810900EB4303D9F8882F8D
:1017A000B3F9AC39734EA3EBA213B342B8BF3346BF
:1017B000AB42A8BF2B4608EB8C1B00EB4B0B07EB97
:1017C0008C1CBBF9ACB900EB4C0CBCF9ACC95A444D
:1017D000A2EB0C02C9F8882F04AA02EB810C002BA3
:1017E0005CF8082C00EB41090EF1010EA9F8D23F7C
:1017F0005FFA8EF1B8BF5B42134451454CF8083C88
:10180000C4D90137631CBFB29BB2B7F5A07F08BF34
:101810000027B3F5A07F2CBF6FF49F721C4608F120
:10182000010328BFA4189BB228BFA4B2B3F5A07FC0
:10183000009E05D36FF49F7398441FFA88F886E7DB
:10184000984684E7002290F8741FA0F8842F71B3A3
:10185000B0F87E3F002B65D0012900F08380B0F8FE
:10186000804F0CB90132D2B223449BB28C1A002CA7
:10187000A0F8843F1BDDB0F8764F012C17D98A1AE7
:10188000012592B2DB00B3FBF2F3B0F9682FA94255
:1018900094B2A0F8E63F80F85A5003D0B0F86A2F0F
:1018A000224412B292FBF1F2A0F8642FC265019BB0
:1018B00093F86F61D6B190F8753F83B1B0F8762F89
:1018C000012A0CD9B0F96C2F012B91B203D0B0F8DA
:1018D0006E2F0A4412B292FBF3F3A0F8663F90F920
:1018E000943F402B28D005B0BDE8F08F90F9943F8D
:1018F000402BF8D190F8D05F029A05F57A7340F842
:10190000232090F8D63F052B9CBF013380F8D63FAB
:101910006B1CDBB2062B08BF002380F8D03F05B05C
:10192000BDE8F08F012920D0012298E7402B88BF25
:10193000402380F87D3FCCE600210B4690F8D05F35
:1019400004AC03EB4302013104EB830353F8084C6E
:1019500005EB4202CBB202F57A729E4240F8224079
:10196000EED2CEE7A0F8843F85E70A467EE700BFC7
:10197000A81B00200080FFFF002A3ED08A423CD8EE
:101980002DE9F04F00252C468E1AC6F34F0900F5BD
:10199000805302EB090702F1FF3893F86FA1BFB241
:1019A00019FA88F809F2562600F2AC4BB94528BF5F
:1019B000002319D24FF0000C04EB840E06EB8E11BD
:1019C00000EB410108EB8E1E02390BEB4E0E31F994
:1019D000023F002BB8BF5B4271451CFA83FCF6D175
:1019E0004FEACC0CBCFBF2F30634013540F824304E
:1019F000ECB2A245DAD2BDE8F08F704790F8B23E63
:101A00004BB9B0F8AC3EB3F5C87F34BF042308230C
:101A100080F8B23E7047082B02D0042B16D07047D6
:101A2000B0F8AC3EB3F5C87FF9D2002290F81F3F62
:101A300080F81E2F0133DBB2042B80F81F3FEED954
:101A4000042380F81F2F80F8B23E7047B0F8AC3EF8
:101A5000B3F5DE7FE3D9002290F81E3F80F81F2FF8
:101A60000133DBB2042B80F81E3FD8D9082380F85D
:101A70001E2F80F8B23ED2E72DE9F04100257823F1
:101A8000A84682B01A46CDE9003300F5805393F89A
:101A90006F7100EB8506B3695100B3EB420F07D2BB
:101AA000C91AA2EB510202A901EB850141F8082CE9
:101AB000002A22DB02FB02FE0F224FF4004C00241E
:101AC00003FB03F3A3EB0E0E0CEB440393407345AF
:101AD00002F1FF329CBF6444AEEB030E531C4FEA8D
:101AE0005C0CF1D10135EDB2BD42B4610DD802AB51
:101AF00003EB850353F8082CCBE702AA02EB85021F
:101B00004FF0000E42F8088CD6E702B0BDE8F08135
:101B1000F8B514460D461146FFF7BCFD94F9943F05
:101B2000402B7FD0D4F8E02F002A03DDD4F8DC3F2F
:101B3000002B08DBA36CB3F5027F0EDA0023A4F8B8
:101B4000AC3E6365F8BD5B429B0193FBF2F3A4F8E6
:101B5000E43FA36CB3F5027FF0DBB4F8A0340621B8
:101B60000133A4F8A03404F626722046FFF766FA83
:101B7000B4F8262F20461146FFF7FEFE0123B4F8E5
:101B8000262F04F2AC41FFF733F9614F00230646DC
:101B9000B4F8262F2046FFF72BF9FB8DB3F58D6F98
:101BA00056D2864228BF0646F6B2A4F8226F002E0F
:101BB00056D1B4F8241FB4F9A034102B60D004F52A
:101BC00080560022104600F0B7FF29462046FFF756
:101BD00053FFFEF765FD96F86F31002B64D1204668
:101BE000FFF70AFA2046FFF709FF0122618D104630
:101BF00000F0A2FFFA8DD308520748BF0133A4F8C2
:101C0000563096F86F31002B9CD000220220218D97
:101C100000F092FFB7F8523003EB83039B08A4F85F
:101C20005430F8BD0020034604F5805696F86F1135
:101C300004EB830C083355F82320DCF8883F01308F
:101C400002EBA312C3B29942CCF8982FF0D269E705
:101C5000864238BF0646F6B2A4F8226F002EA8D0FE
:101C6000B4F8262FD200B2FBF6F35B009BB2B3F5BB
:101C7000946F3FD94FF494631946A4F8243F9AE730
:101C800097F8243004F5805687F82C30142396F802
:101C90006F2187F83A30002A93D087F85E3097F8A2
:101CA000483087F850308CE7D4ED056A9FED197AFB
:101CB000F4EEC76AF1EE10FA91DDDFED177A9FEDD1
:101CC000176A26EE877A66EEA77A27EE267A77EEEF
:101CD000867A77EE877AB0EE677ABEEEEE7A17EE06
:101CE000103A9AB2C3F3CC03642B0BD94FF4487269
:101CF000228574E7FF2B98BF4FF480731946A4F830
:101D0000243F58E73B2B98BF4FF4F072F0E700BF39
:101D1000A81B002000000000000040C20000EC42B0
:101D200088B1094BA3FB0023DB08C3EB4332C3EBB1
:101D3000820200EB420080B2042888BF0133642B8A
:101D400028BF642318467047CDCCCCCC8B69002BC0
:101D50004CD0D1ED087AF5EEC07AF1EE10FA45DDFF
:101D6000C72B4FEAD3022AD9836CB3F5FA5F26D387
:101D70009FED377AF4EEC77AF1EE10FA1FD49FED9B
:101D8000357AF4EEC77AF1EE10FA3ED5DFED326A1D
:101D900001F2A44393ED007A67EEA67AB4EEE77AF7
:101DA000F1EE10FA40DD022201F5805191F86D311B
:101DB00081F86E210133DBB281F86D310EE001F55F
:101DC000805191F86C310133DBB20A2B81F86C3110
:101DD00015D9012291F86D3181F86E21192B05D9A1
:101DE0000122042380F8FE2081F86E317047B1F99A
:101DF000A034062B26DD192A24D001F580510023BA
:101E000081F86E3181F86D317047F5EE006A01F2AC
:101E1000A44393ED007A67EEA67AB4EEE77AF1EE8A
:101E200010FAE4DD0322BFE7B1F9A034062B09DD87
:101E3000192A07D0002301F5805181F86D3181F80E
:101E40006E31704701F5805191F86D31C6E700BFE2
:101E50000AD7233DCDCCCC3D9A99193E70B5144696
:101E60000546126BA06B236B266B1B1AA4F840303F
:101E7000E06B636BB2F5027FA3EB0003A4F8423082
:101E8000636B82B0E3636388A264A663E38143DA91
:101E90000223224685F854302846FFF739FE94ED98
:101EA000080AB5EEC00AF1EE10FA4FF000032ADD81
:101EB00004F2A440FEF7D2FA1A4A04F59563B2F888
:101EC000762083ED000A12B194F85A30BBB994F829
:101ED000593413B9312384F8593494F8443013B188
:101EE0002046FEF7BBFD21462846D4F88831DB08A2
:101EF000A4F8B03E02B0BDE87040FFF727BF20460F
:101F0000FEF7EEFEE3E7002204F2A4400649036078
:101F1000064B0A701A70CFE720460191FEF788FB46
:101F20000199B5E7A81B0020780600204006002094
:101F3000012800D970470B4AC0EB001002EB0013D8
:101F400010B44FF0FF3483F8C41083F8C5104FF677
:101F5000FF710001C3F8C840A3F8EC4011525DF8CE
:101F6000044B7047081800202DE9F04F8B4C83B0CC
:101F70000091C0EB001104EB011191F8C550010173
:101F8000954200F0FB80012832D90E1A04EB061EA0
:101F90009EF8C420DEF8C8505700013F6B1CBC46B9
:101FA0004FEA0616BFB21FFA82FA34D00023AEF809
:101FB000EE30A35B013501330CEA03031BB2654528
:101FC000CEF8C850A3534FDC002D4BD0BEF9CC50F7
:101FD0000A1A04EB0212A2F8EE50081A03EBC00032
:101FE000009B04EB4004A4F8CC3003B0BDE8F08FB4
:101FF0004FF6FF760B1A570004EB0315013F1B0148
:10200000BC4685F8C42085F8C520A5F8EC60E652EA
:10201000BFB21FFA82FA0123614D52FA03F62B7008
:1020200006D01E460133DBB252FA03FEF9D12B7003
:102030000025A1EB000E4FEA0E1834F8083004EB2F
:102040000E1E01330CEA03031BB224F80830DFF83C
:102050005481BCF1FF3F88F80060CEF8C850AEF85C
:10206000EE5001D0009DB3E75FFA83FE02EB0E094C
:102070000E1A4FEAC60809EA070758FA87F7C64456
:1020800004EB4707B7F9CC9004EB4E0E009FBEF966
:10209000CCB04FEAC70E36010EEBCB0803EB43077B
:1020A00006EB8707A8EB0918AEEBCB0E27442644B6
:1020B0004FEA68084FEA6E0E4FEAC909C7F8048074
:1020C000C7F808E0C7F80C90B6F9EC700135674521
:1020D000BCBF0137A6F8EC70B5EB820F52DBA1EB69
:1020E000000904EB0912B2F9EC204FEA0919002AA1
:1020F000B8BF002638DB02F1020B2A4A9DB292F8E3
:1021000000800AEB050200261F469646AB4405F107
:10211000010A1FFA8BFB1FFA8AFA01910FFA8AF360
:10212000AEEB0A0203EA0C0312B203EB430302FB19
:1021300002F509EB8303234459680AF1010A01FB04
:1021400005F545FA08F545FA08F535449E681FFA85
:102150008AFA02FB06F6DB6846FA08F62E44D345F7
:102160001E44DBD13B4601990D4A127816410A1AEA
:10217000F61004EB0212A2F8EE602EE7012B7FF4BA
:1021800004AF00E70A1A03EBC20504EB4505B5F8F6
:10219000CC5004EB0212A2F8EE501EE70818002003
:1021A000E8190020E9190020014B1870704700BFA2
:1021B000EA19002000B584464FF0080E83B08DF870
:1021C00004E09CF807E09CF808C002234EEA0C0CDF
:1021D000152101AAA6208DF805C002F041FB03B02D
:1021E0005DF804FB10B54FF0000C8646222482B047
:1021F0008DF804C08DF806409EF80AC09EF80B408A
:102200009EF80CE04CEA040C4CEA0E0C03232B2144
:1022100001AAA6208DF805C002F022FB02B010BD75
:102220008446042300B5BCF810E0BCF812C083B0AB
:102230008DF804E08DF806C04FEA1E2E4FEA1C2CE4
:1022400030210DEB0302A6208DF805E08DF807C0C4
:1022500002F006FB03B05DF804FB00BF844600B546
:102260004FF0040E9CF814C083B00CFA0EFC4CF036
:102270000A0C02232E210DEB0E02A6208DF805E09C
:102280008DF804C002F0ECFA03B05DF804FB00BF67
:10229000844600B583B09CF818E09CF819C002236E
:1022A000422101AAA6208DF804E08DF805C002F0B5
:1022B000D7FA03B05DF804FB30B50446002583B0BF
:1022C00094F807C001AA01231621A6208DF804C0A6
:1022D00002F0C6FA01AA03233821A6208DF8045083
:1022E0008DF805508DF8065002F0BAFA29466A4674
:1022F0000223A62002F07CFAE279247A0123144317
:10230000162101AAA6208DF8044002F0A9FA03B014
:1023100030BD00BF4FF0800C152130B5044683B0AE
:1023200001AA0123A6200D468DF804C002F098FAF8
:1023300042F2107005F046FBB4F80EC001AA8DF809
:1023400004C002234FEA1C2C1721A6208DF805C0DB
:1023500002F086FA4FF01A0C6A4602231921A620D1
:102360008DF800C08DF8015002F07AFA23881E2102
:102370001A0A8DF8043063888DF805208DF8063030
:102380001A0A04238DF80720A6200DEB030202F0A1
:1023900067FA4FF0040C237D0DEB0C0203FA0CF3EB
:1023A00043F00A038DF804302E210223A6208DF875
:1023B00005C002F055FA0023012222212272E371A6
:1023C000A27A8DF80430E37A8DF806101A43237B45
:1023D0002B211A438DF80520032301AAA62002F021
:1023E0003FFA4FF0080C237AE079294618438DF81C
:1023F0000500022301AAA6208DF804C002F030FADD
:1024000003B030BD70B5802682B0044601AA012316
:102410001521A6208DF8046002F022FA42F2107015
:1024200005F0D0FA4FF0000E0425222694F80AC0D9
:1024300084F80CE08DF804E094F80BE00DEB050255
:102440004CEA0E0C03232B21A6208DF805C08DF835
:10245000066002F005FA6A4601232C21A62002F04C
:10246000C7F9227D0223AA4042F00A028DF8042017
:102470002E210DEB0502A6208DF8055002F0F0F993
:10248000228A2B46110A8DF80420628A8DF80510E5
:10249000110A8DF806208DF807100DEB050230218A
:1024A000A62002F0DDF9A279217942F030028DF800
:1024B00005200DEB05021C2541F00A018DF80410E2
:1024C00002233521A62002F0CBF901AA01233721EE
:1024D000A6208DF8045002F0C3F902230825217AC2
:1024E00001AA19438DF80510E3711521A6208DF876
:1024F000045002F0B5F902B070BD00BF70B580267F
:1025000082B0044601AA01231521A6208DF804609B
:1025100002F0A6F942F2107005F054FA4FF0000EE6
:102520000425222694F80AC084F80CE08DF804E013
:1025300094F80BE00DEB05024CEA0E0C03232B2163
:10254000A6208DF805C08DF8066002F089F96A466C
:1025500001232C21A62002F04BF9227D0223AA4060
:1025600042F00A028DF804202E210DEB0502A62070
:102570008DF8055002F074F9238A30211A0A8DF87B
:102580000430638A8DF805201A0A8DF806308DF81C
:1025900007202B460DEB0502A62002F061F92279F7
:1025A000A37942F00A0243F030038DF804208DF83D
:1025B00005300DEB050202233521A62002F050F96B
:1025C0004FF01C0C0DEB050201233721A6208DF8DE
:1025D00004C002F045F94FF0080C237A15212B4373
:1025E0008DF805300DEB05020223E571A6208DF86C
:1025F00004C002F035F902B070BD00BF70B50C46E2
:1026000006461546032338212246A62002F0F0F89C
:1026100023787375627893429CBF2033DBB2B27526
:102620009B1AA178DBB25A08F1752B706A70A378F7
:10263000AB7070BD034603EB43030A46A6203B2163
:102640005BB202F0D5B800BFA0B1944600B502EB72
:10265000800E8A7848780B78120443EA002302F44B
:10266000403213434CF8043BE64501F10301F0D13D
:102670005DF804FB704700BF2DE9F04140F2FF34E4
:1026800040F2FF1582B0ADF80650ADF8044023B912
:1026900004240123048680F8293000EB8206336A83
:1026A0000FFA82FE002B4ED14FF4403301243362E7
:1026B0004FF4C01C0477002A43D1048ABCFBF4FC0D
:1026C00041F27074A44538BFA446BCF5B04F28BF92
:1026D0004FF4B04C47F2305700EB4E0EBEF82E5080
:1026E000042D94BF64463C46A3EB0408884531D9C9
:1026F000A3F5EA44303C8C4284BF0021AEF82E1092
:10270000002A68D002AC418A04EB420434F8044C3D
:102710000831A142C0F2C8808B4C03EBC301A14237
:1027200000F2CA80012A60D1B3F5404F5DD1037D2C
:10273000022B5FD80021013303754277C1850186E2
:1027400058E0448ABAE7B3F5404F40F0AF804FF409
:10275000B04CBFE71C448C4255D21F448F423CBF53
:102760000024AEF82E40002A78D0047D002C00F022
:10277000AB80012C00F0D980022C00F0DD80032C0E
:1027800040F0A280B1F5F03F40F29E80022201238A
:10279000027543770023C3850386BEF82E30042BD1
:1027A0002DD9012380F8293090F82A30002B42D10E
:1027B00090F82A3063B990F828304BB190F829305E
:1027C00033B10123202280F82A30428180F82B3057
:1027D00002B0BDE8F08140F2F634018AA14259D935
:1027E00003EBC301584B994266D84FF44041012393
:1027F000316203770023AEF82E30002A46D0002342
:1028000080F8293013E0A3EB0C048C4208D2634417
:102810008B4205D9042D05D80135ADB2AEF82E5046
:10282000042DEAD9002ABCD1012380F8283090F881
:102830002A30002BBCD090F828301BB190F82930FA
:10284000002BB5D1002101224FF4805380F82A10CB
:10285000438180F82B2002B0BDE8F08140F2FE31C8
:10286000028A02EBC204B1EBD40F05DB03EB830356
:102870005B00B3F5FC1F50D3102A04D90123083A9A
:10288000028280F82C30C38D042BCDD8002380F831
:102890002830CCE708310182012380F82C30BEF8C3
:1028A0002E50042DBED8A8E74182F5E74FEAC30CAD
:1028B000002A3FF402AF44E70123244CA4FB01416A
:1028C000C9083162037795E7417F01293FF462AF80
:1028D00000297FF462AF02A901EB420232F8041C26
:1028E000428A02EBC204B1EBD40F0DDD03EB83038C
:1028F0005B00B3F5FC1F07D2154AA2FB032301229C
:10290000D3403362027748E7102A7FF646AF0123AF
:10291000083A428280F82C303FE701220C490277C6
:10292000A1FB0313D3400362ADE7B1F5B43FCBD9AC
:102930000023447703752DE7B1F5903FC4D90123F7
:102940000375437726E700BF09800700CDCCCCCCC8
:10295000398EE33800234377C3850386704700BF71
:102960000023064900EBC00001EB800280000B54FD
:10297000137253819376D38313617047A81B002091
:102980002DE9F04F064604462549DFF8CCA0DFF8D4
:10299000CCB0DFF8CC90DFF8CC80224D224F83B052
:1029A000204B0191E81AC0B2FFF7DAFF01991F4BE3
:1029B00011F8010B243404F80F0C1AF8010B04F879
:1029C000100C1BF8010B04F80D0C19F8010B04F89E
:1029D0000E0C18F8010B04F80C0C17F8010B04F896
:1029E0000B0C15F8010B9D4204F8040CD8D1104AC9
:1029F000104B114811497260B362114A114BF064D7
:102A0000316711481149C6F89420F360104A114B00
:102A100030637165B267C6F89C3003B0BDE8F08FD3
:102A2000F8C60400E8C60400F0C60400EDC60400C1
:102A3000201A0020341A00205C1A0020841A00207A
:102A4000981A0020B41A0020DC1A0020101B002065
:102A5000441B00206C1B002010C7040000C70400AA
:102A600008C7040018C7040010B5F9B1A0F1020CA2
:102A70006246002301F1FF3E5FFA8EFE00EB4E0E30
:102A800032F8024F96452344FAD1B3FBF1F3002408
:102A90009AB23CF8023F9B1AE64503FB0344F8D187
:102AA000B4FBF1F0FDF7E6FD80B210BD0846FDF77E
:102AB000E1FD80B210BD00BF2DE9F0431D4F00EBDA
:102AC000C00507EB8505EE6895F810C03188BCF1AC
:102AD000010F4FEAC008E98327DDB6460123002431
:102AE0003EF8022F8A4202D91146EA83DCB2013352
:102AF0006345F5D18E46002301254908A34208D03D
:102B000036F8132005F101098A4284BF96445FFA22
:102B100089F501336345F1DBBEFBF5F189B2404431
:102B200007EB8007F983BDE8F0838E46F7D10024D8
:102B3000E1E700BFA81B00202DE9F843754D00EB2D
:102B4000C00705EB87077B8904460E464FEAC0089D
:102B5000C3B1BB7E012B15D0002939D1FB7C7A7D16
:102B60000133DBB29A42FB7404BF0123BB764444B9
:102B700005EB84052B7DAA7C9A4224BF0123AB760A
:102B8000BDE8F8832046FFF7EBFEDEB1012008EB3D
:102B9000040205EB82035968B6B20E8015F82210C4
:102BA0001872014405F82210DA685E8116801A7CDA
:102BB000D97D5874914284BF12181A742046FFF7C9
:102BC0007BFFD4E708EB040305EB83035E81CEE7CC
:102BD000397CF8689146FFF747FFB883B9F1000FD9
:102BE00000F083807B893A7E03FB02F2B0EBD21FB8
:102BF0004FEAE213C0F2888008EB040305EB83037D
:102C00005A89B24264D2597E11FB00F093F8201029
:102C100083B201B95B08B21A9A426CD808EB04037C
:102C200005EB8302917D15F823209B008A423CBF6F
:102C30000132EA5408EB040205EB8200436890F885
:102C400008C0B6B223F81C6015F822E0BEF1000FF0
:102C50005DD000220EF1FF37FFB203EB4707023BC6
:102C600033F8020F9F420244FAD1B2FBFEF292B255
:102C700000200CF1010C5FFA8CFC08EB040305EB5F
:102C8000830361455A8158828CBF83F808C018724B
:102C900008EB040305EB83031A7CD97D08EB0407DA
:102CA000914205EB870784BF01321A747A7CFB6876
:102CB000204623F81260FFF7FFFE7B7CFA7D01338C
:102CC000DBB29A427B743FF652AF00237B744EE72F
:102CD000597E921B01FB00F0C0F34F0082429DD948
:102CE0009A7CB6B201329A74D2E73B7E98423CBFDE
:102CF0001846BB8380E708EB040305EB83039A7C4B
:102D0000B6B201329A74C3E798B2B88374E77246D8
:102D1000AEE700BFA81B0020002130B50446A7B0D5
:102D2000922201A8009146F0EAFE374B374A6846E6
:102D30001B681268364947F0DDF8684600F0D8FD98
:102D400054B1012C3BD0032C24D0022C51D0684626
:102D500000F0CEFD27B030BD6C462E4D0FCD0FC418
:102D60000FCD0FC42B686846237000F0C1FDEC4600
:102D7000294C0FCCACE80F000FCCACE80F000FCC07
:102D8000ACE80F0023686846ACF8003000F0B0FDF6
:102D900027B030BD6C46214D0FCD0FC495E80F0014
:102DA00084E80F00684600F0A3FD4B221C496846EA
:102DB00046F07EFE684600F09BFD27B030BD6C46B5
:102DC000184D0FCD0FC40FCD0FC42B68124D2370BB
:102DD0006C46684600F08CFD0FCD0FC40FCD0FC4BC
:102DE0000FCD0FC42B686846238000F081FD27B00B
:102DF00030BD6C460C4D0FCD0FC40FCD0FC42B68EA
:102E000068462360CFE700BFA8EE0400A4EE0400EC
:102E100020C7040028C704004CC70400A4C704004E
:102E2000C4C7040080C7040010C8040000232DE9B3
:102E3000F041574A574D584C82B01268296857489C
:102E400023808DF8073025F05FFF0446002836D137
:102E5000534B1F782FB1534A1378002BFCD000231B
:102E60001370402229684D480DF1070325F0ECFF4F
:102E7000044600285BD19DF8076026BB4A4E337894
:102E8000002B3BD0494B2A681B684949434825F031
:102E9000D5FE054600283BD130702FB1454A137846
:102EA000002BFCD0002313704FF400620021424835
:102EB00046F025FE0022414B1A8000F0EBFD204633
:102EC00002B0BDE8F081012E42D0022ED6D13C4E98
:102ED0003C4A01E0137813B93378002BFAD03378E9
:102EE00003F0FF08002B42D1374804F06FFD37484C
:102EF00000F0FEFC334B83F80080BFE72B4B2A68C1
:102F00001B682D49254825F099FE05460028C4D0A8
:102F10002F49304804F05AFD2C4800F0E9FC2E48B7
:102F200004F054FD294800F0E3FC2C46C7E728498B
:102F3000284804F04BFD254800F0DAFC274804F04F
:102F400045FD224800F0D4FC204602B0BDE8F081E7
:102F50001F49204804F03AFD1C4800F0C9FC2048F5
:102F600004F034FD194800F0C3FC3446A7E71D49BE
:102F7000184804F02BFD154800F0BAFC1A4804F07C
:102F800025FD124800F0B4FC00230324337096E7BB
:102F9000BC250020B82400205C1C002030D9002073
:102FA00080FE0400651C0020C42D0020C0250020E8
:102FB00068240020671C00207486002060760020B2
:102FC000661C0020641C0020FCC8040068CA0020A5
:102FD000BCD0040070C5040010C9040034C804004B
:102FE00068C80400A4D00400B4C8040030B480242D
:102FF0004FF0000C0222184B184D19491D60194B57
:10300000A1F800C01C60184B1A6040B90122174B90
:103010005A72012230BC164B1A70FFF707BF012805
:1030200008D002280ED00328F3D101220F4B83F8D9
:103030003920EEE7012230BC0C4B58760C4B1A704D
:10304000FFF7F4BE012230BC084B83F8292001228F
:10305000074B1A70FFF7EABEB8240020401F000893
:103060005C1C0020C0250020BC2500206824002016
:10307000C42D00202DE9F84F4FF4C06102238022B7
:10308000534F0025396087F82830524987F8383087
:1030900087F84830202379644FF4006182463A6211
:1030A00018203A633A6401223B764B4B4B4CDFF8D5
:1030B0005CB139617B604A4903F560637B628033B0
:1030C0002580DFF84C81474DDFF8489138727961EF
:1030D0007B638BF8002010E04946284646F0C7FF86
:1030E000044688B933782BB10D21284646F050FFAD
:1030F00000284CD1012032F0A1F84146284646F084
:10310000B6FF394E0028E7D000238BF80030BAF123
:10311000000F25D118204FF4C062344B2E4919609E
:103120003349344B08602F481A6046F061FFF8605D
:10313000FFF77CFE044668B95046FFF757FF044688
:1031400040B92D4800F0D4FB2C4800F0D1FB2046BC
:10315000BDE8F88F2A4800F0CBFB2046BDE8F88F89
:10316000BAF1010F17D0BAF1030F23D0BAF1020F51
:10317000DED180221D4B23491A4819601D4B1C4982
:103180001A60C1F800A046F033FFF862D0E78BF870
:1031900000403470BBE720204FF40062134B10490D
:1031A00019601349134B08600E481A6046F020FF5F
:1031B000F861BDE7022080220C4B134919600C49CD
:1031C0000C4B086007481A6046F012FFF863AFE73F
:1031D00068240020401F0008401000085C1C0020EC
:1031E000401600087486002075960020B824002040
:1031F000BC250020C0250020A8C90400DCC90400AB
:1032000078C90400401E0008C01E00086C8600201B
:103210003CC9040058C904002DE9F0470025A8B0B6
:1032200092222946074603A8029546F068FC02232D
:103230005F4C4FF4C06184F8283084F8383084F84B
:103240004830182323724FF4006380222361202327
:10325000216058492262616001F5C061616101F538
:1032600000612263226423766162534B8031534AAA
:10327000616380311B681268616402A8504946F09E
:1032800039FE02A800F034FBDFF854E10DF1080C20
:10329000BEE80F00ACE80F00DEF8003002A8CCF862
:1032A0000030484EDFF83C81DFF83C9100F020FB15
:1032B000EBB28DB1012B3BD0022B25D194F82930F4
:1032C000002B45D10135042DF2D13F4800F010FB11
:1032D000002028B0BDE8F087637A002BF2D0D4E953
:1032E00000A13046524646F0E3FB3046374946F0EF
:1032F000BEFE28B1304646F07BFEE368984243D0DC
:10330000334800F0F5FADDE7032DDBD194F83930CE
:10331000002BDAD0D4E90C212A4846F0C9FB002F53
:10332000D3D02C4800F0E4FA264800F0E1FACCE7CC
:10333000637E002BC6D0226930466169019246F057
:10334000B7FB019AAFB90021304646F0D8FBB9E788
:10335000D4E90821304646F0ABFB404600F0C8FAFD
:10336000304600F0C5FA00213046226A46F0C7FB1D
:10337000A8E7484600F0BCFA304600F0B9FA164813
:1033800000F0B6FA2269DEE72FB952460021304636
:1033900046F0B5FB96E7114800F0AAFA304600F077
:1033A000A7FA0D4800F0A4FAD4F800A0EDE700BF9A
:1033B0006824002040100008A8EE0400A4EE0400D9
:1033C00020C70400C82D0020DCC904003CC904004B
:1033D00050CA040018CB040008D404001CCA04001E
:1033E00008CA0400E0CA0400A8CA040008B55022B4
:1033F0000249034846F05CFB002008BD401F00085E
:103400006824002038B5FFF7F1FF08BB182402221A
:10341000134B80211C72134C83F828205C604FF4FE
:10342000006483F8382083F8482020224FF4C065D8
:103430001962196319640C491A765964A1F510616F
:1034400059612144596280311D6059631C6138BD46
:1034500040F2C711054B064A064826F055FE00BF4C
:103460006824002040100008401F00084CCB0400D6
:10347000D0D0040060CB040030B5214B214A1B683A
:103480001268214983B02148204C214D46F032FD7D
:103490001E4800F02DFA0FCD0FC420462B6840F8CF
:1034A000103900F025FA1B4A537A23BB1A490B68DE
:1034B000507E10B1D06903440B6092F8290010B11E
:1034C000D06A03440B6092F8390010B1D26B1344F8
:1034D0000B60C3F578644FF47862104900940B4890
:1034E00046F008FD094800F003FA0D4803B0BDE8B6
:1034F000304000F0FDB9D36807490B60D8E700BF42
:10350000A8EE0400A4EE040020C70400C835002083
:1035100078CB040068240020601C00208CCB0400C1
:10352000DCC9040070B50026A6B09222314601A87D
:10353000009646F0E4FA784B784A1B68126878499E
:10354000684646F0D7FC684600F0D2F9EC46754C68
:10355000754D0FCCACE80F000FCCACE80F0094E831
:103560000700ACE803002CF8022B120C68468CF81C
:10357000002000F0BDF96B7A002B43D0D5E9002183
:103580006A4846F095FA6A49684846F070FD28B1E5
:10359000664846F02DFDEB68984207D0654800F07C
:1035A000A7F9002312206B7226B070BD02465F4956
:1035B000614846F07DFA614800F09AF95B4846F0B0
:1035C00017FD31460246594846F099FA6B7E002BAA
:1035D00000F08380D5E90421544846F069FA58493F
:1035E000524846F044FD28B1504846F001FDEB69D1
:1035F00098420DD0534800F07BF9002312206B76DF
:1036000026B070BD504800F073F9122026B070BD8E
:10361000024646494D4846F04BFA4D4800F068F9DD
:10362000424846F0E5FC31460246404846F067FA1B
:1036300095F82930002B61D0D5E908213B4846F0A8
:1036400037FA3A4846F0D4FCEB6A024698424ED12B
:10365000404C3649204646F02BFA204646F0C8FC3E
:10366000013823560D2B08BF26543B4800F040F983
:103670002E4846F0BDFC002102462C4846F03FFA99
:1036800095F8393073B3D5E90C21284846F010FA83
:10369000264846F0ADFCEB6B0246984233D12F4CE6
:1036A0002249204646F004FA204646F0A1FC0138A3
:1036B00023560D2B04BF00232354294800F018F98A
:1036C000284800F015F9194846F092FC00210246FE
:1036D000164846F014FA002066E7234800F008F97F
:1036E000122061E7214800F003F912205CE720482E
:1036F00000F0FEF8122085F8296055E71D4800F01B
:10370000F7F8122050E71C4800F0F2F800231220CE
:1037100085F8393048E700BFA8EE0400A4EE0400A5
:1037200020C70400E4CB040068240020C82D00203A
:103730003CC9040050CA0400681C002010CC0400DE
:1037400058C90400E8CC040060CC0400C425002063
:1037500098CC04003C25002078CD0400BC24002037
:1037600060CE040008D4040040CD04000CCF040057
:10377000CCCD040024CE0400B4CE0400002100B55A
:10378000A7B0922201A8009146F0B9F9194B1A4A44
:103790001B6812681949684646F0ACFB684600F0A1
:1037A000A7F86B46164A07CA03C34FEA124C23F820
:1037B000022B83F800C0684600F09AF8114800F028
:1037C00097F8114800F094F8104800F091F810486C
:1037D00000F08EF80F4800F08BF80F4800F088F8E2
:1037E0000E4800F085F80E4800F082F827B05DF82A
:1037F00004FB00BFA8EE0400A4EE040020C70400F0
:1038000048CF040054CF040084CF0400B0CF04009C
:10381000DCCF04000CD0040038D0040068D00400D1
:10382000DCC904000378032B0AD0022B04D05BB957
:103830000122084B1A7070470122074B1A7070471B
:103840000122064B1A707047012B04BF044A137003
:10385000704700BF651C0020641C0020661C00200F
:10386000671C0020002310B50D4C82B0019023602E
:1038700046F0BEFB019902460A480EF021FF20B136
:1038800008E00121084626F047FC2368002BF8D009
:1038900002B010BDC221044B044A054826F034FC96
:1038A0007086002000D900204CCB04003CD20400DC
:1038B000BCD10400002310B50B4C82B001220B4890
:1038C0000DF107018DF8073023600EF0DFFE23684D
:1038D00033B90121084626F01FFC2368002BF8D0DD
:1038E0009DF9070002B010BD6886002000D90020B5
:1038F0000FB42DE9F04F424F9FB03868289D20B19A
:103900000A2131F09BF8012804D01FB0BDE8F04F28
:1039100004B0704795F9002029AB0293002A6DD0BE
:103920000026AB464FF0FF313446DFF8D8900196C1
:1039300015E05D2A07D1002903DB621A131F052B4E
:1039400025D94FF0FF319BF9003009F806300136D8
:1039500036B2013424B22A5705EB040B22B15B2A9C
:10396000E7D121460196EEE74E440023029A25490D
:103970003370254846F0E0FB2348FFF773FF3868B3
:1039800030F096FD1FB0BDE8F04F04B070474FF027
:10399000000802F1010A5246294403A846F044FBFC
:1039A0000AF178030DEB03020DF1180A02F86C8C92
:1039B00050466022154946F07BF804E008F1020801
:1039C000B8F1180FBDD05AF8281003A846F0EDFA48
:1039D0000028F3D11EAB03EB880353F85C6C019B0A
:1039E000314609EB030046F0EAFA304646F000FBA8
:1039F000019B4FF0FF31184406B2AAE7014EB4E72D
:103A0000B0D100206036002060560020DCD10400D8
:103A10000379022B04D0042B09D0012B04D070476A
:103A20000122144B1A607047134A1360704730B478
:103A3000124C2368B3F5805F0CD2114A5278022AE7
:103A40000AD81049826809780F480129C25409D060
:103A50000133236030BC70470B4980689A1C585270
:103A60002260F7E709480A4D01886A540131018054
:103A7000EEE700BF70860020688600206476002094
:103A80004CFE04006C8600206876002060760020E2
:103A9000748600204FF4805208B50021034846F098
:103AA0002EF80022024B1A6008BD00BF6876002085
:103AB000647600202DE9F84FFFF7A4FC002840F0C1
:103AC00022814FF0FF34A24AA24BD2F800B0D3F8C3
:103AD00000A0DFF8C892A04DDFF8C4829F4FA04E2F
:103AE000524659464046FFF703FFDFF898C2DFF819
:103AF000B4E2BEE80F00ACE80F00BEE80F00ACE88F
:103B00000F00BEE80F00ACE80F006046DEF80030A2
:103B100000F83039FFF7ECFE384699F90010FFF74E
:103B2000E7FE61213046FFF7E3FE62218D48FFF793
:103B3000DFFE63218C48FFF7DBFE64218B48FFF733
:103B4000D7FE65218A48FFF7D3FE66218948FFF733
:103B5000CFFE67218848FFF7CBFE68218748FFF733
:103B6000C7FE8748FFF7C4FE2B786BB1202C10D01E
:103B7000613CE3B2072B5AD8072C58D8DFE804F091
:103B80009B8CB5A47A6E650CFFF794FE0446202C3E
:103B9000EED10020BDE8F88F00232B70FFF7EEFD7B
:103BA000FFF788FE2028FBD1524659464046FFF7D2
:103BB0009FFE744CDFF8ECC1BCE80F000FC4BCE8FA
:103BC0000F000FC4BCE80F000FC42046DCF800C093
:103BD00000F830C9FFF78CFE384699F90010FFF75E
:103BE00087FE61213046FFF783FE62215D48FFF7C3
:103BF0007FFE63215C48FFF77BFE64215B48FFF793
:103C000077FE65215A48FFF773FE66215948FFF792
:103C10006FFE67215848FFF76BFE68215748FFF792
:103C200067FE5748FFF764FE2B78002BACD0564850
:103C3000FFF75EFEFFF73EFEA0F16103DBB2072B4C
:103C40000446F7D801232B704AE700232B70FFF7B7
:103C500069FCFFF72FFE2028FBD1A5E700230120F8
:103C60002B70FFF7D9FA00286BD1FFF723FE20282D
:103C7000FBD199E700210122444B032029701A70DF
:103C8000FFF74AF80320FFF7F5F9002853D1FFF7B3
:103C900011FE2028FBD187E7002420462C70FFF777
:103CA0003BF82046FFF7E6F900283ED1FFF702FE79
:103CB0002028FBD178E700232B70FFF7DDFBFFF70F
:103CC000F9FD2028FBD16FE7002101222F4B0220B4
:103CD00029701A70FFF720F80220FFF7CBF9F0B92E
:103CE000FFF7E8FD2028FBD15EE7002301202B70C1
:103CF000FFF712F80120FFF7BDF950B9FFF7DAFD21
:103D00002028FBD150E74021214B224A224826F0AF
:103D1000FBF982211E4B1F4A1F4826F0F5F99D2111
:103D20001B4B1C4A1C4826F0EFF97321184B194A0B
:103D3000194826F0E9F9AD21154B164A164826F028
:103D4000E3F98D21124B134A134826F0DDF900BF29
:103D5000A4EE0400A8EE040074960020A4D204008F
:103D6000B8D20400C4D20400E0D20400FCD20400A3
:103D700020D304003CD3040050D3040080D30400BB
:103D8000DCC90400789600208CD3040075960020CE
:103D90004CCB0400C0D304004CD20400129B002082
:103DA00020C7040070D2040030B500241F4B204A05
:103DB00085B01B6812681F491F48039446F09AF8A3
:103DC0001D48FFF795FD1D4B1D4993F900201A482A
:103DD00046F090F81848FFF78BFD03A826F08CF901
:103DE0009DF80D409DF80E309DF80F201549009468
:103DF0001148114C144D46F07DF80F48FFF778FD3F
:103E00000FCD0FC40FCD0FC495E8070003C42046A3
:103E100020F82829FFF76CFDFFF74CFD20F020006B
:103E200040B20028F8D105B030BD00BFA8EE0400B4
:103E3000A4EE040020C704007C9A0020129B0020FE
:103E4000D0D30400ECD30400DCC9040030B5244B0B
:103E5000244A83B01B6812682349244846F04AF874
:103E60002248FFF745FD224B224993F900201F48C5
:103E70001E4C214D46F03EF81C48FFF739FD0FCD92
:103E80000FC40FCD0FC495E8030044F8040B20467F
:103E900000F82419FFF72CFD96220021A4F124003C
:103EA00045F02DFE1549D1F89C00D1E9242301905D
:103EB000D1F8980012490090A4F1240046F01AF8B5
:103EC000A4F12400FFF714FD0E48FFF711FDFFF7E2
:103ED000F1FC20F0200040B20028F8D103B030BD42
:103EE000A8EE0400A4EE040020C704007C9A002081
:103EF000129B0020F8D304000CD4040000810001C0
:103F000034D40400DCC9040010B5164B164A82B044
:103F10001B6812681549164845F0ECFF1448FFF776
:103F2000E7FC144B144993F900201148134C45F059
:103F3000E1FF0F48FFF7DCFC114B124A12490C4815
:103F4000009445F0D7FF0A48FFF7D2FC0F48FFF76F
:103F5000CFFCFFF7AFFC20F0200040B20028F8D1E2
:103F600002B010BDA8EE0400A4EE040020C70400B7
:103F70007C9A0020129B00204CD40400D0D4040072
:103F80005CD4040094D40400C0D40400DCC9040050
:103F900070B5244B244A82B01B6812682349244818
:103FA00045F0A8FF2248FFF7A3FC224B224993F9D2
:103FB00000201F4845F09EFFFFF724FAFFF7B2FAF2
:103FC000F0B11E48FFF794FC1D48FFF791FC1D4D12
:103FD0004FF0FF342B7843B14FF47A7031F02EF963
:103FE000202CF7D1002002B070BDFFF763FC10F069
:103FF000DF0F0446F6D04FF47A7031F01FF9E9E78D
:10400000012604460F4D10482E70FFF771FC0F4932
:104010003346086832462146CDE9004431F0CAFCF7
:10402000D6E700BFA8EE0400A4EE040020C70400F9
:104030007C9A0020129B0020ECD404000CD50400D4
:10404000DCC90400789A002074D5040060D00020F8
:10405000374B384A2DE9F0411B681268364937481A
:10406000364C374E45F046FF3448FFF741FC0FCE43
:104070000FC40FCE0FC40FCE0FC496E8030044F850
:10408000040B24F8021B20460025090C00F8361901
:10409000FFF72EFC2B4F2A46DFF8B4802A4B363C24
:1040A00001E057F83530013241462046013545F0F0
:1040B00021FF6DB22046FFF71BFC07EBC5035B68D1
:1040C0002A46002BEDD12148FFF712FCDFF884804F
:1040D000FFF7F0FB80B1C4B2A4F1300676B2002E37
:1040E00088F800600FDDAE4216DDC82031F0A6F87A
:1040F000FFF7E0FB0028EED1C82031F09FF86FF009
:104100002F00BDE8F081C82031F098F8002EDFD1F3
:104110006FF02F00BDE8F081A4F131035BB207EB33
:10412000C3077B689847A4F1600040B2BDE8F08106
:10413000A8EE0400A4EE040020C70400149B002095
:10414000BCD5040034D60400ACD5040008D4040067
:10415000F4D50400129B002010B528B3F2B1034639
:104160004068DC68A04202D30CB1012010BDB3F856
:1041700008C001300CF1010CB1FBFCF40CFB141174
:1041800011801A8919885860B2EB510F03D252007E
:1041900000201A8110BD0020198110BD2D21054B72
:1041A000054A064825F0B0FF2C21054B024A03487A
:1041B00025F0AAFFA8D60400E4D604007CD60400AB
:1041C00064D6040010B528B1002401810280C360C8
:1041D000446010BD5921024B024A034825F094FF68
:1041E00018C50400C0D604007CD604002DE9F843AD
:1041F000D0E90295A9EB050890450446164609D971
:104200004068284445F054FCBFF35F8F3544E560B7
:10421000BDE8F8830F464068424628443544A5EB84
:10422000090545F045FC2A46606807EB080145F0A2
:104230003FFCBFF35F8FE560BDE8F8832DE9F843ED
:104240004FF00009064617468846D0E90214336944
:104250000D1B9C4203F1FF3224BF03F1FF325218C1
:10426000BD4228BF3D46121B954228BF15467068C7
:1042700041462A46204445F01BFCB1682C44A1422B
:1042800008BF0024A944A8447F1BBFF35F8FF460DC
:10429000002FDCD14846BDE8F88300BFF8B5174CC5
:1042A000A8220021204645F02AFC4FF40066002396
:1042B00003211020124A134F134D21616161A26145
:1042C000E7612662A3626362E36222666566A066B6
:1042D0002367E3666367BFF35F8F0C4B53219C46F4
:1042E000A3F10F0001E013F90119ACEB03028342C3
:1042F000A154F8D1BFF35F8FF8BD00BF149F002019
:1043000004D70400CC9F0020BC9F00201ED70400CF
:1043100038B5204B00EB400403EBC40EDEF82C4014
:10432000013000EB4000012C8C46154603EBC00029
:1043300005D0022C29D0ACB10024204638BDDEF8CF
:104340002830DEF8242093429CBFDEF820401B1961
:10435000013B9C1AAC4228BF2C462246FFF746FF81
:10436000204638BDDEF82830DEF8242093429CBF7A
:10437000DEF820105B18013B9B1A9D42DDD82A46CF
:104380006146FFF733FF2C46D7E7BDE83840FFF71B
:1043900055BF00BF149F002030B50C4B0C461B7856
:1043A00083B063B1EFF311854FF0200181F31188E1
:1043B0002146FFF7ADFF85F3118803B030BDCDE98D
:1043C0000002FFF76BFFDDE90002EBE7149F00201E
:1043D000D0E9012310B50446581C904207D8226842
:1043E000D1540346E16862680131C4E902019A428E
:1043F00000D010BD21682069FFF7CEFFA368984266
:1044000015BF4FF0FF330023E360A36010BD00BF72
:104410002DE9F84F91420F46DDE90A94154683468F
:104420001E4660D30B464FF00108B3FBF5F39D42E7
:1044300008F10108F9D9B04538BFB04614F0010AB7
:1044400002D1B9F1000F35D1DBF80C30002B2FDB96
:10445000012402E0013E05FB04F4012EFAD8B7FB6B
:10446000F4F39D42F7D9214E06E0AC42B4FBF5F3DC
:104470000CD31C46B7FBF3F3F156584604FB1377F5
:10448000FFF7A6FFDBF80C30002BEEDABAF1000FD5
:104490000ED0B9F1000F0BD0C84509F1FF3907D292
:1044A00020215846FFF794FFDBF80C30002BF0DAA0
:1044B000BDE8F88FA30711D420240CE0214658460C
:1044C000FFF786FFDBF80C3009F1FF39002BEFDB3B
:1044D000B9F1000FBCD0C845F0D3B5E7002E0CBF32
:1044E00030242024F7E74FF00108A4E724D7040084
:1044F0002DE9F04FADF6340D0CAB4FF0000A0793E9
:104500004FF4006383460C461746CDE909AADFF84D
:10451000BC9208930B9005E007A8FFF759FF0A9893
:10452000002872DB14F9011B002972D02529F3D170
:104530000026254614F9013BA3F123020D2A08D8D1
:10454000DFE802F0490707070707070746074C0798
:104550000743A3F13002D2B2092A4FF000040BD86E
:1045600004EB840403EB440415F9013F303CA3F150
:104570003002D2B2092AF3D92E2B00F0CE800023CC
:1045800095F9001001E015F9011F21F00402682AD5
:10459000F9D0252900F0D9805839CAB2202A2FD85D
:1045A00020292DD8DFE801F0412C2C2C2C2C2C2C90
:1045B0002C2C2CAF5E2C2C2C2C2C2C2C2C2C2C2C86
:1045C000502C2C1D2C4D2C2C410046F00206B0E73F
:1045D00046F00406ADE746F00806AAE746F00106F5
:1045E000A7E73B681A1D3A601C6805E007A8FFF7BB
:1045F000EFFE0A98002804DB14F9011B0029F5D10D
:104600000A98002805F101048CDA0DF6340DBDE896
:10461000F08F0A980028F8DD099A002A40F09A8065
:1046200010440DF6340DBDE8F08F10223868016893
:104630000430CDE90046386007A8FFF7E9FE0A9884
:10464000DFE70A223868F2E7082338681022016899
:104650000430386007A8CDF804A00093FFF7D8FE17
:104660000A98CEE73A680120D2F8008004323A6016
:1046700088EAE872A2EBE872092A08DD1146A9FB74
:1046800002C2632900F101004FEAD202F6DC98422F
:10469000024638BF1A4603928CB3B8F1000F61DBB3
:1046A00072075FD4B00700D54BB3F10727D434B3FA
:1046B00004952546039C0593AC421DD207A82021F2
:1046C000FFF786FE0A98013D00287CDB002DF3D120
:1046D0002C46DDE90453B8F1000F45DB720750D4D6
:1046E00006F00302022A53D041460A22CDE90046D1
:1046F00007A8FFF78DFE83E72C46DDE904530A98EF
:104700000028E8DA7DE73B6807A81A1D93F9001036
:104710003A60FFF75DFE0A9873E795F901100135DD
:10472000A1F13003DBB2092B4FF000033FF62DAFB0
:1047300003EB830301EB430315F9011F303BA1F1A8
:104740003002D2B2092AF3D91FE707A8FFF740FECB
:104750000A9856E758460CA9FFF71EFEDDE9092026
:1047600010445EE7013C9DE72D2107A80493FFF765
:104770002FFE049BC8F100080A980028FFF641AFFD
:10478000AEE72B2107A80493FFF722FE049BF3E773
:10479000002BA9D17CB10493039BA3420DD207A89F
:1047A0003021FFF715FE0A98013C0028FFF629AFDB
:1047B000002CF1D1049B002496E70A98049B002862
:1047C000FFF61FAF90E7049D1BE700BFCDCCCCCC1C
:1047D0000EB400B582B003AB53F8041B01AA0193D9
:1047E000FFF786FE02B05DF804EB03B0704700BF30
:1047F000002030B5012487B00492174A174D8DF878
:104800001530936828700DF107008DF8144003905F
:104810001C6906AB10688DF8071013E90E00A0475D
:104820002B7890B940F2E73433B1002318462B704F
:1048300007B030BD002CF8D0012003F0C3F82B786E
:10484000013CA4B2002BF5D0EFE7022B0CBF1220E5
:1048500040B207B030BD00BF5CFF0400FEA70020DF
:1048600070B5184E8C4630461C46114600F801CBF8
:104870001A4645F01DF94FF0000C134B621C9C6862
:10488000124D31461868E36885F800C0984746B273
:104890002B788EB940F2E7342BB1002330462B70D1
:1048A00070BD002CF9D0012003F08CF82B78013C6E
:1048B000A4B2002BF5D0F0E7022B08BF1226304639
:1048C00070BD00BFCCA700205CFF0400FEA7002045
:1048D0000279034B002A0CBF012202221A70704792
:1048E000FEA700208022F0B5434C83B023788DF8DA
:1048F000072033B10023012221467F20237001F0DD
:10490000BBFB01220DF10701062001F0B5FB3220AF
:1049100030F094FC002000210122384D384E4FF039
:10492000100CC5E90001C5E90201C5E90401C6E9A9
:104930000001C6E90201C6E9040100203149324BF9
:104940000A703249324F81F800C0257831493A70F7
:10495000C3E90001C3E90201C3E904012DB1002349
:104960007F202549237001F087FB002501220620C6
:104970000DF107018DF8075001F044FB9DF8073059
:10498000254A03F0BF03137022788DF807302AB14F
:1049900001227F201849257001F06EFB01220620BC
:1049A0000DF1070101F068FB012223788DF8072043
:1049B000022B05D020237F200F49237001F05CFBE0
:1049C000012209200DF1070101F056FB0122237895
:1049D0008DF80720022B05D020237F200649237065
:1049E00001F04AFB01220DF10701092001F044FB0F
:1049F000002003B0F0BD00BF80A80020B8A80020B0
:104A000018A80020D0A8002000A8002081A800201D
:104A100030A800200000F03FF0A8002000B50E49AB
:104A200083B00B782BB1002301227F200B7001F0A3
:104A300023FB002001220DF107018DF8070001F092
:104A4000E1FA9DF80700A0F1EA00B0FA80F0400911
:104A500003B05DF804FB00BF80A8002030B51C4DFA
:104A600004462B7883B0022B06D02023012229464E
:104A70007F202B7001F000FB0023012214200DF198
:104A800007018DF8073001F0BDFA9DF80730114A93
:104A900023F0060343EA4403DBB213702A788DF84F
:104AA0000730022A06D0202301227F2008492B70DC
:104AB00001F0E2FA01220DF10701142001F0DCFA05
:104AC0000120054B00FA04F41C7003B030BD00BF98
:104AD00080A80020F0A8002030A8002030B5204D8C
:104AE00004462A7883B0022A06D0202301222946D0
:104AF0007F202B7001F0C0FA0023012214200DF159
:104B000007018DF8073001F07DFA082C9DF8073079
:104B100015D023F0380343F0010343EAC4002B7897
:104B2000104AC0B2022B10708DF8070010D101227C
:104B30000DF10701142001F09FFA03B030BD2A786F
:104B4000084903F0FE03022A0B708DF80730EED0FF
:104B50002023012202497F202B7001F08DFAE6E725
:104B600080A80020F0A8002000B50B4983B00B7886
:104B70008DF80700022B05D0202301227F200B7027
:104B800001F07AFA01220DF10701102001F074FA08
:104B900003B05DF804FB00BF80A8002030B51C4DB9
:104BA00004462B7883B0022B06D02023012229460D
:104BB0007F202B7001F060FA0122002310460DF1D6
:104BC00007018DF8073001F01DFA9DF80730114AF2
:104BD00023F0060343EA4403DBB213702A788DF80E
:104BE0000730022A06D0202301227F2008492B709B
:104BF00001F042FA01220DF10701104601F03CFAE2
:104C00000120054B00FA04F41C7003B030BD00BF56
:104C100080A80020F0A80020D0A8002030B5204DAA
:104C200004462B7883B0022B06D02023012229468C
:104C30007F202B7001F020FA0122002310460DF195
:104C400007018DF8073001F0DDF9082C9DF80720E9
:104C500015D022F0380242EAC4032A78114943F001
:104C60000103DBB2022A0B708DF8073010D101224C
:104C70000DF10701104601F0FFF903B030BD2B78AC
:104C8000084902F0FE02022B0A708DF80720EED0D0
:104C90002023012202497F202B7001F0EDF9E6E785
:104CA00080A80020F0A8002038B50B4D04462888C5
:104CB000C0BA44F0AFF9C4E900016888C0BA44F052
:104CC000A9F902460B46A888C4E90223C0BA44F0F9
:104CD000A1F9C4E9040138BD50A8002038B50A4D37
:104CE0000446E888C0BA44F095F9C4E9000128896F
:104CF000C0BA44F08FF9C4E902016889C0BA44F02F
:104D000089F9C4E9040138BD50A80020002200231D
:104D10002DE9F04FB04DDFF8E0822978C8E9002393
:104D20000229C8E90223C8E904238DB006D0202354
:104D3000012229467F202B7001F09EF901220023D9
:104D4000104606A98DF8183001F05CF99DF818306E
:104D5000A24C23F0380343F0310323708DF8183050
:104D60002B78022B06D0202301227F209A492B701A
:104D700001F082F9012206A9104601F07DF92B7895
:104D8000022B06D0202301227F2093492B7001F0B3
:104D900073F901220023104606A98DF8183001F09E
:104DA00031F99DF8183003F0F90323708DF81830AD
:104DB0002B78022B06D0202301227F2086492B70DE
:104DC00001F05AF9012206A9104601F055F9012215
:104DD000834B1A702B78022B05D020237F207E492D
:104DE0002B7001F049F900230122142006A98DF847
:104DF000183001F007F99DF8183003F0F90323701B
:104E00008DF818302B78022B06D0202301227F202A
:104E100071492B7001F030F90122142006A901F02C
:104E20002BF901226F4B1A702B78022B05D020230F
:104E30007F2069492B7001F01FF900230122142003
:104E400006A98DF8183001F0DDF89DF818302A78A1
:104E500023F0380343F03103022A23708DF8183011
:104E600006D0202301227F205B492B7001F004F93A
:104E7000012206A9142001F0FFF8322030F0DEF9FB
:104E800032244FF0000BDFF850A1DFF868912B7847
:104E900033B1012251467F2085F800B001F0ECF8D3
:104EA000142249462D2001F0ADF86846FFF7FCFEBC
:104EB000DDE90023D8E9000143F060FFDDE90223CA
:104EC00006460F46D8E90201C8E9006743F056FFDD
:104ED000DDE9042306460F46D8E90401C8E9026764
:104EE00043F04CFF02460B460A20C8E9042330F089
:104EF000A5F9013CCBD10022D8E900013A4B44F09E
:104F00001DFA0022C8E90001D8E90201364B44F03D
:104F100015FA0022C8E90201D8E90401324B44F035
:104F20000DFA0022314B43F027FF3226C8E9040175
:104F30002F4CDFF8A4A02F4F2B7833B10023012290
:104F400051467F202B7001F097F8142239462D200E
:104F500001F058F806A8FFF7C1FEDDE90623D4E901
:104F6000000143F00BFFDDE9082380468946D4E9C0
:104F70000201C4E9008943F001FFDDE90A2380460C
:104F80008946D4E90401C4E9028943F0F7FE0246E8
:104F90000B460120C4E9042301F018F9013ECBD1EE
:104FA000D4E900010022104B44F0C8F90022C4E902
:104FB0000001D4E902010C4B44F0C0F90022C4E91D
:104FC0000201D4E90401084B44F0B8F9C4E9040132
:104FD0000DB0BDE8F08F00BF80A80020F0A8002031
:104FE000D0A8002030A80020000049400000D04098
:104FF000B8A8002050A8002018A8002070B52DEDFA
:10500000028B184B9FED188AB3F90E20B3F910608C
:1050100007EE902AF8EEE77A67EE887A044617EEF4
:10502000900AB3F9125044F007F807EE906AF8EED0
:10503000E77A67EE887AC4E9000117EE900A43F038
:10504000FBFF07EE905AF8EEE77A67EE887AC4E93C
:10505000020117EE900A43F0EFFFBDEC028BC4E9AA
:10506000040170BD50A800208716193E0C2230B5EF
:10507000404C83B023780546032B8DF8072006D0DB
:105080003023012221467F20237000F0F5FF01220A
:1050900003200DF1070100F0EFFF312223788DF896
:1050A0000720032B06D0302301227F2031492370B3
:1050B00000F0E2FF012204200DF1070100F0DCFF07
:1050C00023788DF80750032B06D0302301227F2050
:1050D0002849237000F0D0FF012206200DF10701BE
:1050E00000F0CAFF0A2030F0A9F80DB903B030BDB6
:1050F0008C2223788DF80720032B33D10122032043
:105100000DF1070100F0B8FF112223788DF8072078
:10511000032B1FD1012204200DF1070100F0ACFF89
:10512000882223788DF80720032B0BD101220DF163
:105130000701052000F0A0FF0A2003B0BDE83040C1
:1051400030F07CB8302301220A497F20237000F020
:1051500093FFEBE73023012206497F20237000F004
:105160008BFFD7E73023012202497F20237000F014
:1051700083FFC3E780A800202DE9F041224E0446BA
:10518000307843F047FFDFF8888002460B46D8E9C5
:10519000000144F0D3F81D4D02460B46D4E900014E
:1051A00043F0EAFDD5E9002344F0C8F8C4E9000162
:1051B000307843F02FFF06460F46D8E90201324609
:1051C0003B4644F0BBF802460B46D4E9020143F0EB
:1051D000D3FDD5E9022344F0B1F832463B46C4E999
:1051E0000201D8E9040144F0A9F802460B46D4E9CB
:1051F000040143F0C1FDD5E9042344F09FF8C4E95C
:105200000401BDE8F08100BF30A8002000A8002004
:1052100018A80020D0B586B00446194E6846FFF79E
:1052200043FD6846FFF7A8FF307843F0F3FEDDE961
:10523000002343F059FF0022124B43F055FFC4E90D
:105240000001307843F0E6FEDDE9022306460F4612
:1052500043F04AFF00220B4B43F046FF02460B4649
:105260003046C4E90223DDE90423394643F03CFF1C
:105270000022044B43F038FFC4E9040106B0D0BD5E
:1052800030A800200000103FF8B51B4E04463078CF
:1052900043F0C0FE194D02460B46D5E9000144F02B
:1052A0004DF802460B46D4E9000143F065FDC4E920
:1052B0000001307843F0AEFE06460F46D5E9020104
:1052C00032463B4644F03AF802460B46D4E9020126
:1052D00043F052FD32463B46C4E90201D5E90401E0
:1052E00044F02CF802460B46D4E9040143F044FD97
:1052F000C4E90401F8BD00BFD0A80020B8A8002070
:10530000D0B504461F4EFFF7E9FC2046FFF7BCFF6F
:10531000307843F07FFED4E9002343F0E5FE00221D
:10532000194B43F0E1FE00224FF07C5343F0DCFECA
:10533000C4E90001307843F06DFED4E9022306464B
:105340000F4643F0D1FE00220F4B43F0CDFE00226A
:105350004FF07C5343F0C8FE02460B463046C4E98A
:105360000223D4E90423394643F0BEFE0022064B53
:1053700043F0BAFE00224FF07C5343F0B5FEC4E97F
:105380000401D0BDD0A8002000406F4032202DE99C
:10539000F0472FF053FF2C490B782BB1002301224B
:1053A0007F200B7000F068FE142228492D2000F0A9
:1053B00029FE2748FFF778FC264C2748FFF774FCA6
:1053C0002548FFF7D9FE2046FFF724FFD4E9002344
:1053D000D4E90267D4E904891046194643F084FEF3
:1053E000324604460D463B463046394643F07CFE85
:1053F00002460B462046294643F0C0FC424604467E
:105400000D464B464046494643F06EFE02460B466B
:105410002046294643F0B2FC41EC100B45F040FF1A
:1054200051EC100B44F022F90346DFF838A00B488A
:10543000CAF80030FFF764FF0948FFF7DFFDBDE859
:10544000F04732202FF0FABE80A8002050A800209C
:1054500038A8002088A8002068A80020A0A8002064
:10546000D8A80020F4A80020202230B5A94C83B091
:1054700023788DF8042033B10023012221467F20B8
:10548000237000F0F9FD0122032001A900F0F4FDD2
:10549000072223788DF80420032B06D03023012225
:1054A0007F209C49237000F0E7FD012201A91046EE
:1054B00000F0E2FD0A202FF0C1FE0C2223788DF8C7
:1054C0000420032B06D0302301227F209149237032
:1054D00000F0D2FD0122032001A900F0CDFD32220F
:1054E00023788DF80420032B06D0302301227F205F
:1054F0008849237000F0C0FD0122042001A900F0BA
:10550000BBFD012223788DF80420032B05D0302326
:105510007F208049237000F0AFFD012201A9062001
:1055200000F0AAFD64202FF089FE802223788DF8F8
:10553000042033B1002301227F207649237000F03C
:105540009BFD012201A9062000F096FD32202FF0DC
:1055500075FE237833B1002301227F206D4923702B
:1055600000F08AFD00250122062001A98DF80450D3
:1055700000F048FD9DF80430674A03F0BF03137044
:1055800022788DF804302AB101227F2061492570EC
:1055900000F072FD0122062001A900F06DFD01223C
:1055A00023788DF80420022B05D020237F20594931
:1055B000237000F061FD0122092001A900F05CFDCB
:1055C000202223788DF8042033B1002301227F208C
:1055D0005049237000F050FD0122032001A900F082
:1055E0004BFD072223788DF80420032B06D03023AF
:1055F00001227F204749237000F03EFD012201A9CE
:10560000104600F039FD0A202FF018FE8C22237876
:105610008DF80420032B06D0302301227F203D4942
:10562000237000F029FD0122032001A900F024FDD0
:10563000002223788DF80420032B06D0302301228A
:105640007F203449237000F017FD0122042001A9B6
:1056500000F012FD822223788DF80420032B06D05F
:10566000302301227F202B49237000F005FD012209
:1056700001A9052000F000FD0A202FF0DFFD2378AE
:1056800033B1002301227F202249237000F0F4FC73
:1056900002223B2001A900F0B5FC8C2223788DF872
:1056A0000420032B06D0302301227F2019492370C8
:1056B00000F0E2FC0122032001A900F0DDFC112230
:1056C00023788DF80420032B06D0302301227F207D
:1056D0001049237000F0D0FC0122042001A900F041
:1056E000CBFC882223788DF80420032B06D03023AE
:1056F00001227F200749237000F0BEFC012201A98E
:10570000052000F0B9FC0A202FF098FD002003B01E
:1057100030BD00BF80A80020F0A80020074B70B566
:10572000D3E900519C682846236898472369284696
:10573000984728466368BDE870401847F0FE0400AB
:10574000F0B585B0FFF7EAFFC823EF22022102A8D7
:105750008DF809308DF8082000F0FAFC022102A82B
:1057600000F0CAFCBDF808305BBA03F03F03082B19
:1057700002D0002005B0F0BD144BC72793E803000A
:1057800002908DF80C1002A8052100F0E1FCF7262C
:105790000F4C04F11005022168468DF800708DF859
:1057A000016000F0D5FC032101A800F0A5FCBDF8C4
:1057B00004305BBA9BB207EE903AF8EEE77AE4EC7D
:1057C000017AA542E7D1012005B0F0BD34D704002D
:1057D00018A9002030B5022883B019D0032823D09F
:1057E000E0B1072125236822124C2170022101A873
:1057F0008DF804208DF8053000F0AAFC00220E4937
:105800000E4B0D6820780E491A700D6003B030BD44
:105810001821084CDF2370222170E7E70321054C93
:105820009C2360222170E1E75F21024C66237822ED
:105830002170DBE705A900202CA9002004A9002085
:1058400008A90020484B494A1B8892ED007AA3F52D
:10585000004107EE901AD2ED016AF8EEE75AD2ED58
:10586000027A2DED028BD2ED033A9FED418A06EECE
:10587000103A25EE877A65EEA66A65EEA77A9FED67
:105880003D3A63EE883A27EE257A9FED3B8A66EE35
:10589000A56A67EEA57AB8EEC66A9FED380ADFED15
:1058A000380A26EE086ABDEC028BDFED365A27EE89
:1058B000037A66EE836A67EE837A37EE007A76EED5
:1058C000A36A77EEA07A36EE656A2F4A26EEA73AEB
:1058D00092ED004A2D4ADFED2E1A9FED2E2A82ED21
:1058E000006A27EE266A67EE273ADFED2B2A27EEBD
:1058F000020A67EEA17A26EE216A23EE023A66EEEC
:10590000A20A63EEA23A77EE807A36EE036A9FED42
:10591000235A77EEA07A36EE236A9FED211A67EEBE
:10592000055AC6EE273A26EE811ADFED1E4A75EEBD
:10593000C15A63EEA47A77EE666A75EEE77AC7EE2F
:10594000A65AB8EE444A37EE237A35EE655A34EE5D
:10595000236A25EE077AC7EE067A77EEA57A124B10
:10596000C3ED007A704700BF14A9002018A90020D9
:10597000000000450000803300002F3B0000604A1B
:105980000000384B0000344210A9002028A9002054
:1059900000B808C70050C3C600606A4700C82F4758
:1059A00000409C4700B808470CA9002000B585B00E
:1059B000092101A800F0A0FB9DF808309DF8071010
:1059C000BDF804209DF80AC01B02084843EA0143C1
:1059D000074943EA0C0352BA02800B600120FFF72B
:1059E00031FF044B187005B05DF804FB14A90020CA
:1059F00010A9002004A9002003791BB9024A1368EA
:105A000001331360704700BF2CA9002038B5094B43
:105A10001D689C682846A36898476369284698478C
:105A2000E368284698472846E36A9847BDE8384027
:105A3000FFF774BEF0FE0400F0B51F4C83B023786E
:105A4000002B34D11D4E1E4F1E4D3A6833689B1AF1
:105A50002A78934201D203B0F0BDFFF7A7FF0028D8
:105A6000F9D0194A194B92ED007A194AD2ED007A11
:105A700077EE677A174A12681A60174B83ED007A3F
:105A8000164BC3ED007AFFF7C1FF5F2378222B701E
:105A90006623022101A88DF804208DF8053000F05E
:105AA00057FB0023326823703A6003B0F0BD054D08
:105AB000024E034FD5E700BF04A900202CA9002007
:105AC00008A9002005A900200CA9002000A9002099
:105AD00000AA002028A90020FCA80020F8A8002087
